{
  "contractName": "HashedTimelockERC20",
  "abi": [
    {
      "anonymous": false,
      "inputs": [
        {
          "indexed": true,
          "name": "contractId",
          "type": "bytes32"
        },
        {
          "indexed": true,
          "name": "sender",
          "type": "address"
        },
        {
          "indexed": true,
          "name": "receiver",
          "type": "address"
        },
        {
          "indexed": false,
          "name": "tokenContract",
          "type": "address"
        },
        {
          "indexed": false,
          "name": "amount",
          "type": "uint256"
        },
        {
          "indexed": false,
          "name": "hashlock",
          "type": "bytes32"
        },
        {
          "indexed": false,
          "name": "timelock",
          "type": "uint256"
        }
      ],
      "name": "LogHTLCERC20New",
      "type": "event"
    },
    {
      "anonymous": false,
      "inputs": [
        {
          "indexed": true,
          "name": "contractId",
          "type": "bytes32"
        }
      ],
      "name": "LogHTLCERC20Withdraw",
      "type": "event"
    },
    {
      "anonymous": false,
      "inputs": [
        {
          "indexed": true,
          "name": "contractId",
          "type": "bytes32"
        }
      ],
      "name": "LogHTLCERC20Refund",
      "type": "event"
    },
    {
      "constant": false,
      "inputs": [
        {
          "name": "_receiver",
          "type": "address"
        },
        {
          "name": "_hashlock",
          "type": "bytes32"
        },
        {
          "name": "_timelock",
          "type": "uint256"
        },
        {
          "name": "_tokenContract",
          "type": "address"
        },
        {
          "name": "_amount",
          "type": "uint256"
        }
      ],
      "name": "newContract",
      "outputs": [
        {
          "name": "contractId",
          "type": "bytes32"
        }
      ],
      "payable": false,
      "stateMutability": "nonpayable",
      "type": "function"
    },
    {
      "constant": false,
      "inputs": [
        {
          "name": "_contractId",
          "type": "bytes32"
        },
        {
          "name": "_preimage",
          "type": "bytes32"
        }
      ],
      "name": "withdraw",
      "outputs": [
        {
          "name": "",
          "type": "bool"
        }
      ],
      "payable": false,
      "stateMutability": "nonpayable",
      "type": "function"
    },
    {
      "constant": false,
      "inputs": [
        {
          "name": "_contractId",
          "type": "bytes32"
        }
      ],
      "name": "refund",
      "outputs": [
        {
          "name": "",
          "type": "bool"
        }
      ],
      "payable": false,
      "stateMutability": "nonpayable",
      "type": "function"
    },
    {
      "constant": true,
      "inputs": [
        {
          "name": "_contractId",
          "type": "bytes32"
        }
      ],
      "name": "getContract",
      "outputs": [
        {
          "name": "sender",
          "type": "address"
        },
        {
          "name": "receiver",
          "type": "address"
        },
        {
          "name": "tokenContract",
          "type": "address"
        },
        {
          "name": "amount",
          "type": "uint256"
        },
        {
          "name": "hashlock",
          "type": "bytes32"
        },
        {
          "name": "timelock",
          "type": "uint256"
        },
        {
          "name": "withdrawn",
          "type": "bool"
        },
        {
          "name": "refunded",
          "type": "bool"
        },
        {
          "name": "preimage",
          "type": "bytes32"
        }
      ],
      "payable": false,
      "stateMutability": "view",
      "type": "function"
    }
  ],
  "bytecode": "0x608060405234801561001057600080fd5b50611820806100206000396000f300608060405260043610610062576000357c0100000000000000000000000000000000000000000000000000000000900463ffffffff168063398a7a981461006757806363615149146101085780637249fbb61461015f578063e16c7d98146101a8575b600080fd5b34801561007357600080fd5b506100ea600480360381019080803573ffffffffffffffffffffffffffffffffffffffff169060200190929190803560001916906020019092919080359060200190929190803573ffffffffffffffffffffffffffffffffffffffff169060200190929190803590602001909291905050506102c1565b60405180826000191660001916815260200191505060405180910390f35b34801561011457600080fd5b5061014560048036038101908080356000191690602001909291908035600019169060200190929190505050610b90565b604051808215151515815260200191505060405180910390f35b34801561016b57600080fd5b5061018e6004803603810190808035600019169060200190929190505050611167565b604051808215151515815260200191505060405180910390f35b3480156101b457600080fd5b506101d76004803603810190808035600019169060200190929190505050611671565b604051808a73ffffffffffffffffffffffffffffffffffffffff1673ffffffffffffffffffffffffffffffffffffffff1681526020018973ffffffffffffffffffffffffffffffffffffffff1673ffffffffffffffffffffffffffffffffffffffff1681526020018873ffffffffffffffffffffffffffffffffffffffff1673ffffffffffffffffffffffffffffffffffffffff168152602001878152602001866000191660001916815260200185815260200184151515158152602001831515151581526020018260001916600019168152602001995050505050505050505060405180910390f35b600082338360008111151561033e576040517f08c379a00000000000000000000000000000000000000000000000000000000081526004018080602001828103825260188152602001807f746f6b656e20616d6f756e74206d757374206265203e2030000000000000000081525060200191505060405180910390fd5b808373ffffffffffffffffffffffffffffffffffffffff1663dd62ed3e84306040518363ffffffff167c0100000000000000000000000000000000000000000000000000000000028152600401808373ffffffffffffffffffffffffffffffffffffffff1673ffffffffffffffffffffffffffffffffffffffff1681526020018273ffffffffffffffffffffffffffffffffffffffff1673ffffffffffffffffffffffffffffffffffffffff1681526020019250505060206040518083038186803b15801561040c57600080fd5b505afa158015610420573d6000803e3d6000fd5b505050506040513d602081101561043657600080fd5b8101908080519060200190929190505050101515156104e3576040517f08c379a00000000000000000000000000000000000000000000000000000000081526004018080602001828103825260218152602001807f746f6b656e20616c6c6f77616e6365206d757374206265203e3d20616d6f756e81526020017f740000000000000000000000000000000000000000000000000000000000000081525060400191505060405180910390fd5b864281111515610581576040517f08c379a00000000000000000000000000000000000000000000000000000000081526004018080602001828103825260238152602001807f74696d656c6f636b2074696d65206d75737420626520696e207468652066757481526020017f757265000000000000000000000000000000000000000000000000000000000081525060400191505060405180910390fd5b6002338b89898d8d604051602001808773ffffffffffffffffffffffffffffffffffffffff1673ffffffffffffffffffffffffffffffffffffffff166c010000000000000000000000000281526014018673ffffffffffffffffffffffffffffffffffffffff1673ffffffffffffffffffffffffffffffffffffffff166c010000000000000000000000000281526014018573ffffffffffffffffffffffffffffffffffffffff1673ffffffffffffffffffffffffffffffffffffffff166c01000000000000000000000000028152601401848152602001836000191660001916815260200182815260200196505050505050506040516020818303038152906040526040518082805190602001908083835b6020831015156106b95780518252602082019150602081019050602083039250610694565b6001836020036101000a038019825116818451168082178552505050505050905001915050602060405180830381855afa1580156106fb573d6000803e3d6000fd5b5050506040513d602081101561071057600080fd5b8101908080519060200190929190505050945061072c8561177e565b1515156107a1576040517f08c379a00000000000000000000000000000000000000000000000000000000081526004018080602001828103825260178152602001807f436f6e747261637420616c72656164792074616b656e2100000000000000000081525060200191505060405180910390fd5b6107aa8561177e565b156107b457600080fd5b8673ffffffffffffffffffffffffffffffffffffffff166323b872dd3330896040518463ffffffff167c0100000000000000000000000000000000000000000000000000000000028152600401808473ffffffffffffffffffffffffffffffffffffffff1673ffffffffffffffffffffffffffffffffffffffff1681526020018373ffffffffffffffffffffffffffffffffffffffff1673ffffffffffffffffffffffffffffffffffffffff1681526020018281526020019350505050602060405180830381600087803b15801561088b57600080fd5b505af115801561089f573d6000803e3d6000fd5b505050506040513d60208110156108b557600080fd5b810190808051906020019092919050505015156108d157600080fd5b610120604051908101604052803373ffffffffffffffffffffffffffffffffffffffff1681526020018b73ffffffffffffffffffffffffffffffffffffffff1681526020018873ffffffffffffffffffffffffffffffffffffffff1681526020018781526020018a600019168152602001898152602001600015158152602001600015158152602001600060010260001916815250600080876000191660001916815260200190815260200160002060008201518160000160006101000a81548173ffffffffffffffffffffffffffffffffffffffff021916908373ffffffffffffffffffffffffffffffffffffffff16021790555060208201518160010160006101000a81548173ffffffffffffffffffffffffffffffffffffffff021916908373ffffffffffffffffffffffffffffffffffffffff16021790555060408201518160020160006101000a81548173ffffffffffffffffffffffffffffffffffffffff021916908373ffffffffffffffffffffffffffffffffffffffff160217905550606082015181600301556080820151816004019060001916905560a0820151816005015560c08201518160060160006101000a81548160ff02191690831515021790555060e08201518160060160016101000a81548160ff02191690831515021790555061010082015181600701906000191690559050508973ffffffffffffffffffffffffffffffffffffffff163373ffffffffffffffffffffffffffffffffffffffff1686600019167f4ea4e99f860572a3879af5b9ed9265b3627da34e69374831e62cf9c1a037b5a38a8a8e8e604051808573ffffffffffffffffffffffffffffffffffffffff1673ffffffffffffffffffffffffffffffffffffffff168152602001848152602001836000191660001916815260200182815260200194505050505060405180910390a45050505095945050505050565b60008083610b9d8161177e565b1515610c11576040517f08c379a00000000000000000000000000000000000000000000000000000000081526004018080602001828103825260198152602001807f636f6e7472616374496420646f6573206e6f742065786973740000000000000081525060200191505060405180910390fd5b84846002816040516020018082600019166000191681526020019150506040516020818303038152906040526040518082805190602001908083835b602083101515610c725780518252602082019150602081019050602083039250610c4d565b6001836020036101000a038019825116818451168082178552505050505050905001915050602060405180830381855afa158015610cb4573d6000803e3d6000fd5b5050506040513d6020811015610cc957600080fd5b81019080805190602001909291905050506000191660008084600019166000191681526020019081526020016000206004015460001916141515610d75576040517f08c379a000000000000000000000000000000000000000000000000000000000815260040180806020018281038252601c8152602001807f686173686c6f636b206861736820646f6573206e6f74206d617463680000000081525060200191505060405180910390fd5b863373ffffffffffffffffffffffffffffffffffffffff16600080836000191660001916815260200190815260200160002060010160009054906101000a900473ffffffffffffffffffffffffffffffffffffffff1673ffffffffffffffffffffffffffffffffffffffff16141515610e56576040517f08c379a000000000000000000000000000000000000000000000000000000000815260040180806020018281038252601a8152602001807f776974686472617761626c653a206e6f7420726563656976657200000000000081525060200191505060405180910390fd5b60001515600080836000191660001916815260200190815260200160002060060160009054906101000a900460ff161515141515610efc576040517f08c379a000000000000000000000000000000000000000000000000000000000815260040180806020018281038252601f8152602001807f776974686472617761626c653a20616c72656164792077697468647261776e0081525060200191505060405180910390fd5b42600080836000191660001916815260200190815260200160002060050154111515610fb6576040517f08c379a00000000000000000000000000000000000000000000000000000000081526004018080602001828103825260318152602001807f776974686472617761626c653a2074696d656c6f636b2074696d65206d75737481526020017f20626520696e207468652066757475726500000000000000000000000000000081525060400191505060405180910390fd5b600080896000191660001916815260200190815260200160002094508685600701816000191690555060018560060160006101000a81548160ff0219169083151502179055508460020160009054906101000a900473ffffffffffffffffffffffffffffffffffffffff1673ffffffffffffffffffffffffffffffffffffffff1663a9059cbb8660010160009054906101000a900473ffffffffffffffffffffffffffffffffffffffff1687600301546040518363ffffffff167c0100000000000000000000000000000000000000000000000000000000028152600401808373ffffffffffffffffffffffffffffffffffffffff1673ffffffffffffffffffffffffffffffffffffffff16815260200182815260200192505050602060405180830381600087803b1580156110eb57600080fd5b505af11580156110ff573d6000803e3d6000fd5b505050506040513d602081101561111557600080fd5b81019080805190602001909291905050505087600019167fb274ecbfbc0eda7b3618d62964d187a407e800a7cde2665de83e90b5acc1384160405160405180910390a260019550505050505092915050565b600080826111748161177e565b15156111e8576040517f08c379a00000000000000000000000000000000000000000000000000000000081526004018080602001828103825260198152602001807f636f6e7472616374496420646f6573206e6f742065786973740000000000000081525060200191505060405180910390fd5b833373ffffffffffffffffffffffffffffffffffffffff16600080836000191660001916815260200190815260200160002060000160009054906101000a900473ffffffffffffffffffffffffffffffffffffffff1673ffffffffffffffffffffffffffffffffffffffff161415156112c9576040517f08c379a00000000000000000000000000000000000000000000000000000000081526004018080602001828103825260168152602001807f726566756e6461626c653a206e6f742073656e6465720000000000000000000081525060200191505060405180910390fd5b60001515600080836000191660001916815260200190815260200160002060060160019054906101000a900460ff16151514151561136f576040517f08c379a000000000000000000000000000000000000000000000000000000000815260040180806020018281038252601c8152602001807f726566756e6461626c653a20616c726561647920726566756e6465640000000081525060200191505060405180910390fd5b60001515600080836000191660001916815260200190815260200160002060060160009054906101000a900460ff161515141515611415576040517f08c379a000000000000000000000000000000000000000000000000000000000815260040180806020018281038252601d8152602001807f726566756e6461626c653a20616c72656164792077697468647261776e00000081525060200191505060405180910390fd5b42600080836000191660001916815260200190815260200160002060050154111515156114d0576040517f08c379a00000000000000000000000000000000000000000000000000000000081526004018080602001828103825260238152602001807f726566756e6461626c653a2074696d656c6f636b206e6f74207965742070617381526020017f736564000000000000000000000000000000000000000000000000000000000081525060400191505060405180910390fd5b6000808660001916600019168152602001908152602001600020925060018360060160016101000a81548160ff0219169083151502179055508260020160009054906101000a900473ffffffffffffffffffffffffffffffffffffffff1673ffffffffffffffffffffffffffffffffffffffff1663a9059cbb8460000160009054906101000a900473ffffffffffffffffffffffffffffffffffffffff1685600301546040518363ffffffff167c0100000000000000000000000000000000000000000000000000000000028152600401808373ffffffffffffffffffffffffffffffffffffffff1673ffffffffffffffffffffffffffffffffffffffff16815260200182815260200192505050602060405180830381600087803b1580156115f857600080fd5b505af115801561160c573d6000803e3d6000fd5b505050506040513d602081101561162257600080fd5b81019080805190602001909291905050505084600019167fd2e595f42ef29a918206aacb16643bc6b5217990d79865d467ab625e3174a55d60405160405180910390a260019350505050919050565b6000806000806000806000806000806000151561168d8c61177e565b1515141561169a57611770565b6000808c6000191660001916815260200190815260200160002090508060000160009054906101000a900473ffffffffffffffffffffffffffffffffffffffff168160010160009054906101000a900473ffffffffffffffffffffffffffffffffffffffff168260020160009054906101000a900473ffffffffffffffffffffffffffffffffffffffff168360030154846004015485600501548660060160009054906101000a900460ff168760060160019054906101000a900460ff1688600701549950995099509950995099509950995099505b509193959799909294969850565b60008073ffffffffffffffffffffffffffffffffffffffff16600080846000191660001916815260200190815260200160002060000160009054906101000a900473ffffffffffffffffffffffffffffffffffffffff1673ffffffffffffffffffffffffffffffffffffffff16141590509190505600a165627a7a7230582035d88f2c36be3f1a0b913f35c45ca7be18ef76cf1eaeb9efd6a7e07975e08a7d0029",
  "source": "pragma solidity ^0.4.24;\npragma experimental \"v0.5.0\";\n\nimport \"zeppelin-solidity/contracts/token/ERC20/ERC20.sol\";\n\n/**\n* @title Hashed Timelock Contracts (HTLCs) on Ethereum ERC20 tokens.\n*\n* This contract provides a way to create and keep HTLCs for ERC20 tokens.\n*\n* See HashedTimelock.sol for a contract that provides the same functions \n* for the native ETH token.\n*\n* Protocol:\n*\n*  1) newContract(receiver, hashlock, timelock, tokenContract, amount) - a \n*      sender calls this to create a new HTLC on a given token (tokenContract) \n*       for a given amount. A 32 byte contract id is returned\n*  2) withdraw(contractId, preimage) - once the receiver knows the preimage of\n*      the hashlock hash they can claim the tokens with this function\n*  3) refund() - after timelock has expired and if the receiver did not \n*      withdraw the tokens the sender / creater of the HTLC can get their tokens \n*      back with this function.\n */\ncontract HashedTimelockERC20 {\n\n    event LogHTLCERC20New(\n        bytes32 indexed contractId,\n        address indexed sender,\n        address indexed receiver,\n        address tokenContract,\n        uint amount,\n        bytes32 hashlock,\n        uint timelock\n    );\n    event LogHTLCERC20Withdraw(bytes32 indexed contractId);\n    event LogHTLCERC20Refund(bytes32 indexed contractId);\n\n    struct LockContract {\n        address sender;\n        address receiver;\n        address tokenContract;\n        uint amount;\n        bytes32 hashlock;\n        uint timelock; // UNIX timestamp seconds - locked UNTIL this time\n        bool withdrawn;\n        bool refunded;\n        bytes32 preimage;\n    }\n\n    modifier tokensTransferable(address _token, address _sender, uint _amount) {\n        require(_amount > 0, \"token amount must be > 0\");\n        require(\n            ERC20(_token).allowance(_sender, this) >= _amount,\n            \"token allowance must be >= amount\"\n        );\n        _;\n    }\n    modifier futureTimelock(uint _time) {\n        // only requirement is the timelock time is after the last blocktime (now).\n        // probably want something a bit further in the future then this.\n        // but this is still a useful sanity check:\n        require(_time > now, \"timelock time must be in the future\");\n        _;\n    }\n    modifier contractExists(bytes32 _contractId) {\n        require(haveContract(_contractId), \"contractId does not exist\");\n        _;\n    }\n    modifier hashlockMatches(bytes32 _contractId, bytes32 _x) {\n        require(\n            contracts[_contractId].hashlock == sha256(abi.encodePacked(_x)),\n            \"hashlock hash does not match\"\n        );\n        _;\n    }\n    modifier withdrawable(bytes32 _contractId) {\n        require(contracts[_contractId].receiver == msg.sender, \"withdrawable: not receiver\");\n        require(contracts[_contractId].withdrawn == false, \"withdrawable: already withdrawn\");\n        require(contracts[_contractId].timelock > now, \"withdrawable: timelock time must be in the future\");\n        _;\n    }\n    modifier refundable(bytes32 _contractId) {\n        require(contracts[_contractId].sender == msg.sender, \"refundable: not sender\");\n        require(contracts[_contractId].refunded == false, \"refundable: already refunded\");\n        require(contracts[_contractId].withdrawn == false, \"refundable: already withdrawn\");\n        require(contracts[_contractId].timelock <= now, \"refundable: timelock not yet passed\");\n        _;\n    }\n\n    mapping (bytes32 => LockContract) contracts;\n\n    /**\n     * @dev Sender / Payer sets up a new hash time lock contract depositing the\n     * funds and providing the reciever and terms.\n     *\n     * NOTE: _receiver must first call approve() on the token contract. \n     *       See allowance check in tokensTransferable modifier.\n\n     * @param _receiver Receiver of the tokens.\n     * @param _hashlock A sha-2 sha256 hash hashlock.\n     * @param _timelock UNIX epoch seconds time that the lock expires at. \n     *                  Refunds can be made after this time.\n     * @param _tokenContract ERC20 Token contract address.\n     * @param _amount Amount of the token to lock up.\n     * @return contractId Id of the new HTLC. This is needed for subsequent \n     *                    calls.\n     */\n    function newContract(\n        address _receiver,\n        bytes32 _hashlock,\n        uint _timelock,\n        address _tokenContract,\n        uint _amount\n    )\n        external\n        tokensTransferable(_tokenContract, msg.sender, _amount)\n        futureTimelock(_timelock)\n        returns (bytes32 contractId)\n    {\n        contractId = sha256(\n            abi.encodePacked(\n                msg.sender,\n                _receiver,\n                _tokenContract,\n                _amount,\n                _hashlock,\n                _timelock\n            )\n        );\n\n        // Reject if a contract already exists with the same parameters. The\n        // sender must change one of these parameters (ideally providing a\n        // different _hashlock).\n        require(!haveContract(contractId),\"Contract already taken!\");\n        if (haveContract(contractId))\n            revert();\n\n        // This contract becomes the temporary owner of the tokens\n        if (!ERC20(_tokenContract).transferFrom(msg.sender, this, _amount))\n            revert();\n            \n        contracts[contractId] = LockContract(\n            msg.sender,\n            _receiver,\n            _tokenContract,\n            _amount,\n            _hashlock,\n            _timelock,\n            false,\n            false,\n            0x0\n        );\n\n        emit LogHTLCERC20New(\n            contractId,\n            msg.sender,\n            _receiver,\n            _tokenContract,\n            _amount,\n            _hashlock,\n            _timelock\n        );\n    }\n\n    /**\n    * @dev Called by the receiver once they know the preimage of the hashlock.\n    * This will transfer ownership of the locked tokens to their address.\n    *\n    * @param _contractId Id of the HTLC.\n    * @param _preimage sha256(_preimage) should equal the contract hashlock.\n    * @return bool true on success\n     */\n    function withdraw(bytes32 _contractId, bytes32 _preimage)\n        external\n        contractExists(_contractId)\n        hashlockMatches(_contractId, _preimage)\n        withdrawable(_contractId)\n        returns (bool)\n    {\n        LockContract storage c = contracts[_contractId];\n        c.preimage = _preimage;\n        c.withdrawn = true;\n        ERC20(c.tokenContract).transfer(c.receiver, c.amount);\n        emit LogHTLCERC20Withdraw(_contractId);\n        return true;\n    }\n\n    /**\n     * @dev Called by the sender if there was no withdraw AND the time lock has\n     * expired. This will restore ownership of the tokens to the sender.\n     *\n     * @param _contractId Id of HTLC to refund from.\n     * @return bool true on success\n     */\n    function refund(bytes32 _contractId)\n        external\n        contractExists(_contractId)\n        refundable(_contractId)\n        returns (bool)\n    {\n        LockContract storage c = contracts[_contractId];\n        c.refunded = true;\n        ERC20(c.tokenContract).transfer(c.sender, c.amount);\n        emit LogHTLCERC20Refund(_contractId);\n        return true;\n    }\n\n    /**\n     * @dev Get contract details.\n     * @param _contractId HTLC contract id\n     * @return All parameters in struct LockContract for _contractId HTLC\n     */\n    function getContract(bytes32 _contractId)\n        public\n        view\n        returns (\n            address sender,\n            address receiver,\n            address tokenContract,\n            uint amount,\n            bytes32 hashlock,\n            uint timelock,\n            bool withdrawn,\n            bool refunded,\n            bytes32 preimage\n        )\n    {\n        if (haveContract(_contractId) == false)\n            return;\n        LockContract storage c = contracts[_contractId];\n        return (\n            c.sender,\n            c.receiver,\n            c.tokenContract,\n            c.amount,\n            c.hashlock,\n            c.timelock,\n            c.withdrawn,\n            c.refunded,\n            c.preimage\n        );\n    }\n\n    /**\n     * @dev Is there a contract with id _contractId.\n     * @param _contractId Id into contracts mapping.\n     */\n    function haveContract(bytes32 _contractId)\n        internal\n        view\n        returns (bool exists)\n    {\n        exists = (contracts[_contractId].sender != address(0));\n    }\n\n}",
  "sourcePath": "/home/daniel/code/web/atomic-transactions/contracts/HashedTimelockERC20.sol",
  "compiler": {
    "name": "solc",
    "version": "0.4.24+commit.e67f0147.Emscripten.clang"
  },
  "schemaVersion": "2.0.1",
  "updatedAt": "2018-11-06T01:12:26.508Z"
}