{
  "contractName": "HashLock",
  "abi": [
    {
      "constant": true,
      "inputs": [],
      "name": "hash",
      "outputs": [
        {
          "name": "",
          "type": "bytes32"
        }
      ],
      "payable": false,
      "stateMutability": "view",
      "type": "function"
    },
    {
      "constant": true,
      "inputs": [],
      "name": "owner",
      "outputs": [
        {
          "name": "",
          "type": "address"
        }
      ],
      "payable": false,
      "stateMutability": "view",
      "type": "function"
    },
    {
      "inputs": [],
      "payable": false,
      "stateMutability": "nonpayable",
      "type": "constructor"
    },
    {
      "constant": false,
      "inputs": [
        {
          "name": "_hash",
          "type": "bytes32"
        }
      ],
      "name": "Escrow",
      "outputs": [],
      "payable": true,
      "stateMutability": "payable",
      "type": "function"
    },
    {
      "constant": false,
      "inputs": [
        {
          "name": "secret",
          "type": "uint256"
        }
      ],
      "name": "Unlock",
      "outputs": [],
      "payable": false,
      "stateMutability": "nonpayable",
      "type": "function"
    }
  ],
  "bytecode": "0x608060405234801561001057600080fd5b5033600160006101000a81548173ffffffffffffffffffffffffffffffffffffffff021916908373ffffffffffffffffffffffffffffffffffffffff160217905550610352806100616000396000f300608060405260043610610062576000357c0100000000000000000000000000000000000000000000000000000000900463ffffffff16806309bd5a601461006757806321860b611461009a578063832a253a146100be5780638da5cb5b146100eb575b600080fd5b34801561007357600080fd5b5061007c610142565b60405180826000191660001916815260200191505060405180910390f35b6100bc6004803603810190808035600019169060200190929190505050610148565b005b3480156100ca57600080fd5b506100e96004803603810190808035906020019092919050505061019d565b005b3480156100f757600080fd5b50610100610300565b604051808273ffffffffffffffffffffffffffffffffffffffff1673ffffffffffffffffffffffffffffffffffffffff16815260200191505060405180910390f35b60005481565b80600081600019169055503073ffffffffffffffffffffffffffffffffffffffff166108fc349081150290604051600060405180830381858888f19350505050158015610199573d6000803e3d6000fd5b5050565b6000546000191681604051602001808281526020019150506040516020818303038152906040526040518082805190602001908083835b6020831015156101f957805182526020820191506020810190506020830392506101d4565b6001836020036101000a03801982511681845116808217855250505050505090500191505060405180910390206000191614151561029f576040517f08c379a000000000000000000000000000000000000000000000000000000000815260040180806020018281038252601e8152602001807f54686973206973206e6f742074686520636f727265637420736563726574000081525060200191505060405180910390fd5b3373ffffffffffffffffffffffffffffffffffffffff166108fc3073ffffffffffffffffffffffffffffffffffffffff16319081150290604051600060405180830381858888f193505050501580156102fc573d6000803e3d6000fd5b5050565b600160009054906101000a900473ffffffffffffffffffffffffffffffffffffffff16815600a165627a7a7230582021226d3f348276918f317ed69eeeef820c420f18b76553ac48a49b306fd24bc90029",
  "source": "pragma solidity ^0.4.15;\n\ncontract HashLock{\n    \n    bytes32 public hash;\n    address public owner;\n    \n    constructor() public{\n        owner = msg.sender;\n    }\n    \n    modifier onlyOwner{\n        require(owner == msg.sender,\"Not the owner of contract!\");\n        _;\n    }\n    \n    function Escrow(bytes32 _hash) external payable{\n        hash = _hash;\n        address(this).transfer(msg.value);\n    }\n    \n    \n    function Unlock(uint256 secret) external{\n        require(keccak256(abi.encodePacked(secret)) == hash,\"This is not the correct secret\");\n        msg.sender.transfer(address(this).balance);\n    }\n    \n    \n}",
  "sourcePath": "/home/daniel/code/web/atomic-transactions/contracts/HashLock.sol",
  "compiler": {
    "name": "solc",
    "version": "0.4.24+commit.e67f0147.Emscripten.clang"
  },
  "schemaVersion": "2.0.1",
  "updatedAt": "2018-10-20T17:47:33.128Z"
}