{
  "contractName": "TimeLock",
  "abi": [
    {
      "inputs": [],
      "payable": false,
      "stateMutability": "nonpayable",
      "type": "constructor"
    },
    {
      "constant": false,
      "inputs": [
        {
          "name": "_lockTime",
          "type": "uint256"
        }
      ],
      "name": "Escrow",
      "outputs": [],
      "payable": true,
      "stateMutability": "payable",
      "type": "function"
    },
    {
      "constant": false,
      "inputs": [],
      "name": "GetFunds",
      "outputs": [],
      "payable": false,
      "stateMutability": "nonpayable",
      "type": "function"
    }
  ],
  "bytecode": "0x608060405234801561001057600080fd5b50336000806101000a81548173ffffffffffffffffffffffffffffffffffffffff021916908373ffffffffffffffffffffffffffffffffffffffff1602179055506103b2806100606000396000f30060806040526004361061004c576000357c0100000000000000000000000000000000000000000000000000000000900463ffffffff1680637cbe3067146100515780638c91041814610068575b600080fd5b34801561005d57600080fd5b50610066610088565b005b61008660048036038101908080359060200190929190505050610271565b005b3373ffffffffffffffffffffffffffffffffffffffff166000809054906101000a900473ffffffffffffffffffffffffffffffffffffffff1673ffffffffffffffffffffffffffffffffffffffff1614151561014c576040517f08c379a00000000000000000000000000000000000000000000000000000000081526004018080602001828103825260168152602001807f596f7520617265206e6f7420746865206f776e6572210000000000000000000081525060200191505060405180910390fd5b6002546001544203101515156101f0576040517f08c379a00000000000000000000000000000000000000000000000000000000081526004018080602001828103825260248152602001807f4e6f7420656e6f7567682074696d65206861732070617373656420746f20756e81526020017f6c6f636b0000000000000000000000000000000000000000000000000000000081525060400191505060405180910390fd5b6000809054906101000a900473ffffffffffffffffffffffffffffffffffffffff1673ffffffffffffffffffffffffffffffffffffffff166108fc3073ffffffffffffffffffffffffffffffffffffffff16319081150290604051600060405180830381858888f1935050505015801561026e573d6000803e3d6000fd5b50565b3373ffffffffffffffffffffffffffffffffffffffff166000809054906101000a900473ffffffffffffffffffffffffffffffffffffffff1673ffffffffffffffffffffffffffffffffffffffff16141515610335576040517f08c379a00000000000000000000000000000000000000000000000000000000081526004018080602001828103825260168152602001807f596f7520617265206e6f7420746865206f776e6572210000000000000000000081525060200191505060405180910390fd5b806002819055503073ffffffffffffffffffffffffffffffffffffffff166108fc349081150290604051600060405180830381858888f19350505050158015610382573d6000803e3d6000fd5b50505600a165627a7a7230582009b8d595e4ed057a56bfcb9cb01cb53241d75c8e9175dcbd0d8cb0e6cef810880029",
  "source": "pragma solidity ^0.4.15;\n\n\ncontract TimeLock{\n\n\n    address owner;\n    uint start;\n    uint lockTime;\n\n    constructor () public{\n        owner = msg.sender;\n    }\n\n    modifier onlyOwner{\n        require(owner == msg.sender,\"You are not the owner!\");\n        _;\n    }\n\n    function Escrow(uint _lockTime) external onlyOwner  payable{\n        lockTime = _lockTime;\n        address(this).transfer(msg.value);\n    }\n\n    modifier lockFree{\n        require((now - start) >= lockTime,\"Not enough time has passed to unlock\");\n        _;\n    }\n\n    function GetFunds() external onlyOwner lockFree {\n        owner.transfer(address(this).balance);\n    }\n\n}",
  "sourcePath": "/home/daniel/code/web/atomic-transactions/contracts/TimeLock.sol",
  "compiler": {
    "name": "solc",
    "version": "0.4.24+commit.e67f0147.Emscripten.clang"
  },
  "schemaVersion": "2.0.1",
  "updatedAt": "2018-10-20T17:47:33.129Z"
}